:1000000000308A001A28000023308400831300087F
:10001000031917280230F800F701F70B0D28F80B29
:100020000C289730F700F70B1328800B0A288A1149
:100030000A12482803081F398300713083168F0085
:100040000F088312A0010130A100831603170908CD
:10005000C039890003131F129F1200300317880054
:1000600083128701880189018313003083160313EB
:1000700088008801831288012108A007831688015F
:100080008312200888000230A200FA30A30004285E
:10009000A20B45280310A10D200F51280130A1000B
:0600A000A0013C286300F2
:04400E00F42CFF3F50
:00000001FF
;PIC16F887
;CRC=14D9  CREATED="24-mar.-18 17:24"
