:1000000000308A000428000003081F398300713083
:1000100083168F000F0803170908C03989000313DE
:100020001F129F1200300317880083128701880176
:10003000890183131F308316031385000030880065
:10004000880183128801FF3083168500831205081A
:10005000A000201E91288316051483122110051874
:100060002114831685148312A1108518A1148316F8
:100070000515831221110519211583168515831283
:10008000A1118519A115A113A119A1170030A1195A
:100090000130A4000030211901302406F80021139A
:1000A00078182117003021190130A4000030A11860
:1000B00001302406F800A1127818A1160030A1180A
:1000C0000130A4000030211801302406F80021126C
:1000D000781821160030A11B0130F700770DA3001E
:1000E000A30DA30DF830A3050030211B0130F7004C
:1000F000F70DF70DFC30F7057708A3070030A11ABC
:100100000130F7000310F70D7708A3070030211A1C
:1001100001302307A2008316880183122208880079
:10012000F828201AF82883160514831221100518C0
:100130002114831685148312A1108518A114831627
:1001400005158312211105192115831685158312B2
:10015000A1118519A115A113A119A1170030A11989
:100160000130A4000030211901302406F8002113C9
:10017000781821170030211B0130A4000030A1188D
:1001800001302406F800A1127818A1160030A11A37
:100190000130A4000030211801302406F80021129B
:1001A000781821160030A11B0130F700770DA3004D
:1001B000A30DA30DF830A3050030211B0130F7007B
:1001C000F70DF70DFC30F7057708A3070030A11AEB
:1001D0000130F7000310F70D7708A3070030211A4C
:1001E00001302307A20083168801831222088800A9
:0401F000232863005D
:04400E00F42CFF3F50
:00000001FF
;PIC16F887
;CRC=E7D4  CREATED="24-mar.-18 18:35"
