:1000000001308A00F22900000A108A100A118207C2
:1000100028340C3401340634C936F030F232731D02
:1000200000002730840083130008031924280230BD
:10003000F800F701F70B1A28F80B19289730F7008A
:10004000F70B2028800B172808002E1829280612E5
:100050002A280616831606128312AE183128861235
:10006000322886168316861283122E193928061313
:100070003A280617831606138312AE1941288613F1
:10008000422886178316861300008312881483166D
:1000900088104A284B2883128810831688108312F0
:1000A0000800AF018316061600308312061A0130CD
:1000B000AF048316861600308312861A0130F700CB
:1000C0000310F70D7708AF0483160617003083126C
:1000D000061B0130F700F70DF70DFC30F705770828
:1000E000AF048316861700308312861B0130F70099
:1000F000F70DF70DF70DF830F7057708AF042F0867
:10010000F8000800831688100810061183120810E2
:10011000831608100616861606178617831206150C
:1001200083160611000083128814831688100000BD
:10013000831251207808AE008810831688100000C2
:100140008312881483168810A528831251207808FA
:10015000AD008810831688100612861206138613C7
:1001600083122E0EF700F030F70577082D04F80003
:100170007808AD00AD1FBE2883168A28AB08031D82
:10018000C3280810C428081483160810000083121E
:10019000061183160611000083128810831688103A
:1001A00083122C0EAD000F30AD052D08AE002520BA
:1001B0002C080F39AD00AE0025200800831606126A
:1001C0008612061386138810081006118312081071
:1001D00083160810831206118316061183128810E5
:1001E000831688100F308312A70011200130A2005F
:1001F0002208033C031C04290330AE0025200530EF
:10020000A7001120A20AF8280230AE0025200530F0
:10021000A7001120A2012208033C031C1829220870
:100220000420A300AB012308AC008220A20A0B2902
:100230008A110A120A2A280B1E2921294030A900F6
:100240002229A90101302702A90729088038AA001C
:10025000AB012A08AC00822008002608073A0319DF
:100260003B290B3A03194029063A03194829023A57
:1002700003194E2953290130A700A8001B21582932
:10028000AB010130AC0082200230A70011205829B8
:100290000130A7000230A8001B215829AB01103003
:1002A000AC00822058290130AB002608AC00822027
:1002B00008000B08A2008B13831603178C170C146D
:1002C0000000000083120C087F390319A0290313D2
:1002D000A30003170D080313A40003170F0803134B
:1002E000A5002308A6002D21240803178D00031361
:1002F000250803178F0083168C170C1400000000CC
:1003000083120C0D0E0D7F390319A0290313A300CE
:1003100003170D080313A40003170F080313A50008
:100320002308A6002D21240803178D000313250898
:1003300003178F008D0A03198F0A03135C29031713
:100340000313A21B8B178A110A12112A2508F80120
:1003500024020318AE292408F700BA29F70108304F
:10036000A600A40DF70D250877020318F700F80D75
:10037000A60BB129080078082208A4006430A50063
:10038000A6217708A20078083030031DCE29A31CCF
:10039000D529A319D529231A2030D129A311231235
:1003A0002314F8077808A6002D212208A4000A309B
:1003B000A500A6217708A20078083030031DE629A1
:1003C000A319EA29231CEA29231A2030F807780800
:1003D000A6002D213030A2072208A6002D218A1167
:1003E0000A12252A03081F398300713083168F00F3
:1003F0000F0803170908C039890003131F129F1241
:100400000030031788008312870188018901831354
:100410000313DE280C3003178D0000308F00031308
:1004200059290130A1002108643C031C2E2A21080F
:10043000013903192C2A0130A7000230A8001B2122
:100440002108A2001B30A300BB290230A200FA3011
:10045000A7001120A20B272AA10A132A0130A70006
:100460000230A8001B212030A6002D212030A6003C
:060470002D21112A63009A
:04400E00F42CFF3F50
:00000001FF
;PIC16F887
;CRC=B73B  CREATED="24-mar.-18 18:09"
